{
  "contractName": "Item",
  "abi": [
    {
      "inputs": [
        {
          "internalType": "contract ItemManager",
          "name": "_parentContract",
          "type": "address"
        },
        {
          "internalType": "uint256",
          "name": "_priceInWei",
          "type": "uint256"
        },
        {
          "internalType": "uint256",
          "name": "_index",
          "type": "uint256"
        }
      ],
      "stateMutability": "nonpayable",
      "type": "constructor"
    },
    {
      "stateMutability": "nonpayable",
      "type": "fallback"
    },
    {
      "inputs": [],
      "name": "index",
      "outputs": [
        {
          "internalType": "uint256",
          "name": "",
          "type": "uint256"
        }
      ],
      "stateMutability": "view",
      "type": "function"
    },
    {
      "inputs": [],
      "name": "priceInWei",
      "outputs": [
        {
          "internalType": "uint256",
          "name": "",
          "type": "uint256"
        }
      ],
      "stateMutability": "view",
      "type": "function"
    },
    {
      "inputs": [],
      "name": "pricePaid",
      "outputs": [
        {
          "internalType": "uint256",
          "name": "",
          "type": "uint256"
        }
      ],
      "stateMutability": "view",
      "type": "function"
    },
    {
      "stateMutability": "payable",
      "type": "receive"
    }
  ],
  "bytecode": "0x608060405234801561001057600080fd5b50604051610745380380610745833981810160405281019061003291906100b3565b816001819055508060028190555082600360006101000a81548173ffffffffffffffffffffffffffffffffffffffff021916908373ffffffffffffffffffffffffffffffffffffffff16021790555050505061017e565b60008151905061009881610150565b92915050565b6000815190506100ad81610167565b92915050565b6000806000606084860312156100c857600080fd5b60006100d686828701610089565b93505060206100e78682870161009e565b92505060406100f88682870161009e565b9150509250925092565b600061010d82610126565b9050919050565b600061011f82610102565b9050919050565b600073ffffffffffffffffffffffffffffffffffffffff82169050919050565b6000819050919050565b61015981610114565b811461016457600080fd5b50565b61017081610146565b811461017b57600080fd5b50565b6105b88061018d6000396000f3fe6080604052600436106100385760003560e01c80632986c0e51461024e5780633c8da5881461027957806389794d00146102a45761023f565b3661023f576000805414610081576040517f08c379a00000000000000000000000000000000000000000000000000000000081526004016100789061043e565b60405180910390fd5b34600154146100c5576040517f08c379a00000000000000000000000000000000000000000000000000000000081526004016100bc9061045e565b60405180910390fd5b346000808282546100d691906104c0565b925050819055506000600360009054906101000a900473ffffffffffffffffffffffffffffffffffffffff1673ffffffffffffffffffffffffffffffffffffffff163460025460405160240161012c919061047e565b6040516020818303038152906040527f800fb83f000000000000000000000000000000000000000000000000000000007bffffffffffffffffffffffffffffffffffffffffffffffffffffffff19166020820180517bffffffffffffffffffffffffffffffffffffffffffffffffffffffff83818316178352505050506040516101b69190610407565b60006040518083038185875af1925050503d80600081146101f3576040519150601f19603f3d011682016040523d82523d6000602084013e6101f8565b606091505b505090508061023c576040517f08c379a00000000000000000000000000000000000000000000000000000000081526004016102339061041e565b60405180910390fd5b50005b34801561024b57600080fd5b50005b34801561025a57600080fd5b506102636102cf565b604051610270919061047e565b60405180910390f35b34801561028557600080fd5b5061028e6102d5565b60405161029b919061047e565b60405180910390f35b3480156102b057600080fd5b506102b96102db565b6040516102c6919061047e565b60405180910390f35b60025481565b60015481565b60005481565b60006102ec82610499565b6102f681856104a4565b9350610306818560208601610520565b80840191505092915050565b600061031f602b836104af565b91507f546865207472616e73616374696f6e207761736e74272073756363657373667560008301527f6c2063616e63656c696e670000000000000000000000000000000000000000006020830152604082019050919050565b60006103856014836104af565b91507f4974656d206973207061696420616c72656164790000000000000000000000006000830152602082019050919050565b60006103c5601a836104af565b91507f4f6e6c792066756c6c207061796d656e747320616c6c6f7765640000000000006000830152602082019050919050565b61040181610516565b82525050565b600061041382846102e1565b915081905092915050565b6000602082019050818103600083015261043781610312565b9050919050565b6000602082019050818103600083015261045781610378565b9050919050565b60006020820190508181036000830152610477816103b8565b9050919050565b600060208201905061049360008301846103f8565b92915050565b600081519050919050565b600081905092915050565b600082825260208201905092915050565b60006104cb82610516565b91506104d683610516565b9250827fffffffffffffffffffffffffffffffffffffffffffffffffffffffffffffffff0382111561050b5761050a610553565b5b828201905092915050565b6000819050919050565b60005b8381101561053e578082015181840152602081019050610523565b8381111561054d576000848401525b50505050565b7f4e487b7100000000000000000000000000000000000000000000000000000000600052601160045260246000fdfea26469706673582212208d93a52048fe4f0d3dfa853ab57138bb2a760c2b7a13fca79edc44ed66ceed9a64736f6c63430008000033",
  "immutableReferences": {},
  "source": "pragma solidity ^0.8.0;\n\nimport \"./ItemManager.sol\";\n\ncontract Item {\n    uint public pricePaid;\n    uint public priceInWei;\n    uint public index;\n\n    ItemManager parentContract;\n\n    constructor(ItemManager _parentContract, uint _priceInWei, uint _index) {\n        priceInWei = _priceInWei;\n        index = _index;\n        parentContract = _parentContract;\n    }\n\n    receive() external payable {\n        require(pricePaid == 0, \"Item is paid already\");\n        require(priceInWei == msg.value, \"Only full payments allowed\");\n        pricePaid += msg.value;\n        // in order to get gas we must use a low order function.\n        // in this case we will do a boolean to say if the transaction was successful\n        (bool success, ) = address(parentContract).call{value: msg.value }(abi.encodeWithSignature(\"triggerPayment(uint256)\", index));\n        require(success, \"The transaction wasnt' successful canceling\");\n    }\n\n    fallback() external {\n\n    }\n}",
  "sourcePath": "/Users/georgelugo/Desktop/web3/supplyChain-truffle/contracts/Item.sol",
  "compiler": {
    "name": "solc",
    "version": "0.8.0+commit.c7dfd78e.Emscripten.clang"
  },
  "schemaVersion": "3.4.4",
  "updatedAt": "2022-02-01T17:10:26.846Z",
  "devdoc": {
    "kind": "dev",
    "methods": {},
    "version": 1
  },
  "userdoc": {
    "kind": "user",
    "methods": {},
    "version": 1
  }
}