{
  "contractName": "ItemManager",
  "abi": [
    {
      "anonymous": false,
      "inputs": [
        {
          "indexed": false,
          "internalType": "uint256",
          "name": "_itemIndex",
          "type": "uint256"
        },
        {
          "indexed": false,
          "internalType": "uint256",
          "name": "_step",
          "type": "uint256"
        },
        {
          "indexed": false,
          "internalType": "address",
          "name": "_itemAddress",
          "type": "address"
        }
      ],
      "name": "SupplyChainStep",
      "type": "event"
    },
    {
      "inputs": [],
      "name": "_owner",
      "outputs": [
        {
          "internalType": "address",
          "name": "",
          "type": "address"
        }
      ],
      "stateMutability": "view",
      "type": "function",
      "constant": true
    },
    {
      "inputs": [],
      "name": "isOwner",
      "outputs": [
        {
          "internalType": "bool",
          "name": "",
          "type": "bool"
        }
      ],
      "stateMutability": "view",
      "type": "function",
      "constant": true
    },
    {
      "inputs": [
        {
          "internalType": "uint256",
          "name": "",
          "type": "uint256"
        }
      ],
      "name": "items",
      "outputs": [
        {
          "internalType": "contract Item",
          "name": "_item",
          "type": "address"
        },
        {
          "internalType": "string",
          "name": "_identifier",
          "type": "string"
        },
        {
          "internalType": "uint256",
          "name": "_itemPrice",
          "type": "uint256"
        },
        {
          "internalType": "enum ItemManager.SupplyChainState",
          "name": "_state",
          "type": "uint8"
        }
      ],
      "stateMutability": "view",
      "type": "function",
      "constant": true
    },
    {
      "inputs": [
        {
          "internalType": "string",
          "name": "_identifier",
          "type": "string"
        },
        {
          "internalType": "uint256",
          "name": "_itemPrice",
          "type": "uint256"
        }
      ],
      "name": "createItem",
      "outputs": [],
      "stateMutability": "nonpayable",
      "type": "function"
    },
    {
      "inputs": [
        {
          "internalType": "uint256",
          "name": "_itemIndex",
          "type": "uint256"
        }
      ],
      "name": "triggerPayment",
      "outputs": [],
      "stateMutability": "payable",
      "type": "function",
      "payable": true
    },
    {
      "inputs": [
        {
          "internalType": "uint256",
          "name": "_itemIndex",
          "type": "uint256"
        }
      ],
      "name": "triggerDelivery",
      "outputs": [],
      "stateMutability": "nonpayable",
      "type": "function"
    }
  ],
  "bytecode": "0x608060405234801561001057600080fd5b50336000806101000a81548173ffffffffffffffffffffffffffffffffffffffff021916908373ffffffffffffffffffffffffffffffffffffffff1602179055506119a2806100606000396000f3fe6080604052600436106200005c5760003560e01c8063800fb83f14620000615780638c55174214620000815780638f32d59b14620000af578063b2bdfa7b14620000df578063bfb231d2146200010f578063cd31831e1462000156575b600080fd5b6200007f600480360381019062000079919062000baf565b62000184565b005b3480156200008e57600080fd5b50620000ad6004803603810190620000a7919062000b55565b620003f1565b005b348015620000bc57600080fd5b50620000c762000647565b604051620000d6919062000da7565b60405180910390f35b348015620000ec57600080fd5b50620000f76200069e565b60405162000106919062000d8a565b60405180910390f35b3480156200011c57600080fd5b506200013b600480360381019062000135919062000baf565b620006c2565b6040516200014d949392919062000e01565b60405180910390f35b3480156200016357600080fd5b506200018260048036038101906200017c919062000baf565b620007af565b005b34600160008381526020019081526020016000206002015414620001df576040517f08c379a0000000000000000000000000000000000000000000000000000000008152600401620001d69062000e99565b60405180910390fd5b600060028111156200021a577f4e487b7100000000000000000000000000000000000000000000000000000000600052602160045260246000fd5b6001600083815260200190815260200160002060030160009054906101000a900460ff16600281111562000277577f4e487b7100000000000000000000000000000000000000000000000000000000600052602160045260246000fd5b14620002ba576040517f08c379a0000000000000000000000000000000000000000000000000000000008152600401620002b19062000e77565b60405180910390fd5b600180600083815260200190815260200160002060030160006101000a81548160ff021916908360028111156200031a577f4e487b7100000000000000000000000000000000000000000000000000000000600052602160045260246000fd5b02179055507fa4035636e99f06b7651a604c1019fa4e8779fe68ef27eeb74dff2de348f6199b816001600084815260200190815260200160002060030160009054906101000a900460ff1660028111156200039e577f4e487b7100000000000000000000000000000000000000000000000000000000600052602160045260246000fd5b6001600085815260200190815260200160002060000160009054906101000a900473ffffffffffffffffffffffffffffffffffffffff16604051620003e69392919062000edd565b60405180910390a150565b620003fb62000647565b6200043d576040517f08c379a0000000000000000000000000000000000000000000000000000000008152600401620004349062000ebb565b60405180910390fd5b60003082600254604051620004529062000a0e565b620004609392919062000dc4565b604051809103906000f0801580156200047d573d6000803e3d6000fd5b5090508060016000600254815260200190815260200160002060000160006101000a81548173ffffffffffffffffffffffffffffffffffffffff021916908373ffffffffffffffffffffffffffffffffffffffff1602179055508260016000600254815260200190815260200160002060010190805190602001906200050592919062000a1c565b508160016000600254815260200190815260200160002060020181905550600060016000600254815260200190815260200160002060030160006101000a81548160ff0219169083600281111562000586577f4e487b7100000000000000000000000000000000000000000000000000000000600052602160045260246000fd5b02179055507fa4035636e99f06b7651a604c1019fa4e8779fe68ef27eeb74dff2de348f6199b60025460016000600254815260200190815260200160002060030160009054906101000a900460ff1660028111156200060e577f4e487b7100000000000000000000000000000000000000000000000000000000600052602160045260246000fd5b83604051620006209392919062000edd565b60405180910390a1600260008154809291906200063d90620010db565b9190505550505050565b60008060009054906101000a900473ffffffffffffffffffffffffffffffffffffffff1673ffffffffffffffffffffffffffffffffffffffff163373ffffffffffffffffffffffffffffffffffffffff1614905090565b60008054906101000a900473ffffffffffffffffffffffffffffffffffffffff1681565b60016020528060005260406000206000915090508060000160009054906101000a900473ffffffffffffffffffffffffffffffffffffffff16908060010180546200070d90620010a5565b80601f01602080910402602001604051908101604052809291908181526020018280546200073b90620010a5565b80156200078c5780601f1062000760576101008083540402835291602001916200078c565b820191906000526020600020905b8154815290600101906020018083116200076e57829003601f168201915b5050505050908060020154908060030160009054906101000a900460ff16905084565b620007b962000647565b620007fb576040517f08c379a0000000000000000000000000000000000000000000000000000000008152600401620007f29062000ebb565b60405180910390fd5b6001600281111562000836577f4e487b7100000000000000000000000000000000000000000000000000000000600052602160045260246000fd5b6001600083815260200190815260200160002060030160009054906101000a900460ff16600281111562000893577f4e487b7100000000000000000000000000000000000000000000000000000000600052602160045260246000fd5b14620008d6576040517f08c379a0000000000000000000000000000000000000000000000000000000008152600401620008cd9062000e55565b60405180910390fd5b60026001600083815260200190815260200160002060030160006101000a81548160ff0219169083600281111562000937577f4e487b7100000000000000000000000000000000000000000000000000000000600052602160045260246000fd5b02179055507fa4035636e99f06b7651a604c1019fa4e8779fe68ef27eeb74dff2de348f6199b816001600084815260200190815260200160002060030160009054906101000a900460ff166002811115620009bb577f4e487b7100000000000000000000000000000000000000000000000000000000600052602160045260246000fd5b6001600085815260200190815260200160002060000160009054906101000a900473ffffffffffffffffffffffffffffffffffffffff1660405162000a039392919062000edd565b60405180910390a150565b610745806200122883390190565b82805462000a2a90620010a5565b90600052602060002090601f01602090048101928262000a4e576000855562000a9a565b82601f1062000a6957805160ff191683800117855562000a9a565b8280016001018555821562000a9a579182015b8281111562000a9957825182559160200191906001019062000a7c565b5b50905062000aa9919062000aad565b5090565b5b8082111562000ac857600081600090555060010162000aae565b5090565b600062000ae362000add8462000f4e565b62000f1a565b90508281526020810184848401111562000afc57600080fd5b62000b0984828562001060565b509392505050565b600082601f83011262000b2357600080fd5b813562000b3584826020860162000acc565b91505092915050565b60008135905062000b4f816200120d565b92915050565b6000806040838503121562000b6957600080fd5b600083013567ffffffffffffffff81111562000b8457600080fd5b62000b928582860162000b11565b925050602062000ba58582860162000b3e565b9150509250929050565b60006020828403121562000bc257600080fd5b600062000bd28482850162000b3e565b91505092915050565b62000be68162000f9d565b82525050565b62000bf78162000fb1565b82525050565b62000c088162000ffc565b82525050565b62000c198162001024565b82525050565b62000c2a816200104c565b82525050565b600062000c3d8262000f81565b62000c49818562000f8c565b935062000c5b8185602086016200106f565b62000c6681620011e5565b840191505092915050565b600062000c80601c8362000f8c565b91507f4974656d206973206675727468657220696e2074686520636861696e000000006000830152602082019050919050565b600062000cc2601f8362000f8c565b91507f4974656d206973206675727468657220696e20737570706c7920636861696e006000830152602082019050919050565b600062000d04601b8362000f8c565b91507f4f6e6c792066756c6c207061796d656e747320616363657074656400000000006000830152602082019050919050565b600062000d4660208362000f8c565b91507f4f776e61626c653a2063616c6c6572206973206e6f7420746865206f776e65726000830152602082019050919050565b62000d848162000ff2565b82525050565b600060208201905062000da1600083018462000bdb565b92915050565b600060208201905062000dbe600083018462000bec565b92915050565b600060608201905062000ddb600083018662000bfd565b62000dea602083018562000d79565b62000df9604083018462000d79565b949350505050565b600060808201905062000e18600083018762000c0e565b818103602083015262000e2c818662000c30565b905062000e3d604083018562000d79565b62000e4c606083018462000c1f565b95945050505050565b6000602082019050818103600083015262000e708162000c71565b9050919050565b6000602082019050818103600083015262000e928162000cb3565b9050919050565b6000602082019050818103600083015262000eb48162000cf5565b9050919050565b6000602082019050818103600083015262000ed68162000d37565b9050919050565b600060608201905062000ef4600083018662000d79565b62000f03602083018562000d79565b62000f12604083018462000bdb565b949350505050565b6000604051905081810181811067ffffffffffffffff8211171562000f445762000f43620011b6565b5b8060405250919050565b600067ffffffffffffffff82111562000f6c5762000f6b620011b6565b5b601f19601f8301169050602081019050919050565b600081519050919050565b600082825260208201905092915050565b600062000faa8262000fd2565b9050919050565b60008115159050919050565b600081905062000fcd82620011f6565b919050565b600073ffffffffffffffffffffffffffffffffffffffff82169050919050565b6000819050919050565b6000620010098262001010565b9050919050565b60006200101d8262000fd2565b9050919050565b6000620010318262001038565b9050919050565b6000620010458262000fd2565b9050919050565b6000620010598262000fbd565b9050919050565b82818337600083830152505050565b60005b838110156200108f57808201518184015260208101905062001072565b838111156200109f576000848401525b50505050565b60006002820490506001821680620010be57607f821691505b60208210811415620010d557620010d462001187565b5b50919050565b6000620010e88262000ff2565b91507fffffffffffffffffffffffffffffffffffffffffffffffffffffffffffffffff8214156200111e576200111d62001129565b5b600182019050919050565b7f4e487b7100000000000000000000000000000000000000000000000000000000600052601160045260246000fd5b7f4e487b7100000000000000000000000000000000000000000000000000000000600052602160045260246000fd5b7f4e487b7100000000000000000000000000000000000000000000000000000000600052602260045260246000fd5b7f4e487b7100000000000000000000000000000000000000000000000000000000600052604160045260246000fd5b6000601f19601f8301169050919050565b600381106200120a576200120962001158565b5b50565b620012188162000ff2565b81146200122457600080fd5b5056fe608060405234801561001057600080fd5b50604051610745380380610745833981810160405281019061003291906100b3565b816001819055508060028190555082600360006101000a81548173ffffffffffffffffffffffffffffffffffffffff021916908373ffffffffffffffffffffffffffffffffffffffff16021790555050505061017e565b60008151905061009881610150565b92915050565b6000815190506100ad81610167565b92915050565b6000806000606084860312156100c857600080fd5b60006100d686828701610089565b93505060206100e78682870161009e565b92505060406100f88682870161009e565b9150509250925092565b600061010d82610126565b9050919050565b600061011f82610102565b9050919050565b600073ffffffffffffffffffffffffffffffffffffffff82169050919050565b6000819050919050565b61015981610114565b811461016457600080fd5b50565b61017081610146565b811461017b57600080fd5b50565b6105b88061018d6000396000f3fe6080604052600436106100385760003560e01c80632986c0e51461024e5780633c8da5881461027957806389794d00146102a45761023f565b3661023f576000805414610081576040517f08c379a00000000000000000000000000000000000000000000000000000000081526004016100789061043e565b60405180910390fd5b34600154146100c5576040517f08c379a00000000000000000000000000000000000000000000000000000000081526004016100bc9061045e565b60405180910390fd5b346000808282546100d691906104c0565b925050819055506000600360009054906101000a900473ffffffffffffffffffffffffffffffffffffffff1673ffffffffffffffffffffffffffffffffffffffff163460025460405160240161012c919061047e565b6040516020818303038152906040527f800fb83f000000000000000000000000000000000000000000000000000000007bffffffffffffffffffffffffffffffffffffffffffffffffffffffff19166020820180517bffffffffffffffffffffffffffffffffffffffffffffffffffffffff83818316178352505050506040516101b69190610407565b60006040518083038185875af1925050503d80600081146101f3576040519150601f19603f3d011682016040523d82523d6000602084013e6101f8565b606091505b505090508061023c576040517f08c379a00000000000000000000000000000000000000000000000000000000081526004016102339061041e565b60405180910390fd5b50005b34801561024b57600080fd5b50005b34801561025a57600080fd5b506102636102cf565b604051610270919061047e565b60405180910390f35b34801561028557600080fd5b5061028e6102d5565b60405161029b919061047e565b60405180910390f35b3480156102b057600080fd5b506102b96102db565b6040516102c6919061047e565b60405180910390f35b60025481565b60015481565b60005481565b60006102ec82610499565b6102f681856104a4565b9350610306818560208601610520565b80840191505092915050565b600061031f602b836104af565b91507f546865207472616e73616374696f6e207761736e74272073756363657373667560008301527f6c2063616e63656c696e670000000000000000000000000000000000000000006020830152604082019050919050565b60006103856014836104af565b91507f4974656d206973207061696420616c72656164790000000000000000000000006000830152602082019050919050565b60006103c5601a836104af565b91507f4f6e6c792066756c6c207061796d656e747320616c6c6f7765640000000000006000830152602082019050919050565b61040181610516565b82525050565b600061041382846102e1565b915081905092915050565b6000602082019050818103600083015261043781610312565b9050919050565b6000602082019050818103600083015261045781610378565b9050919050565b60006020820190508181036000830152610477816103b8565b9050919050565b600060208201905061049360008301846103f8565b92915050565b600081519050919050565b600081905092915050565b600082825260208201905092915050565b60006104cb82610516565b91506104d683610516565b9250827fffffffffffffffffffffffffffffffffffffffffffffffffffffffffffffffff0382111561050b5761050a610553565b5b828201905092915050565b6000819050919050565b60005b8381101561053e578082015181840152602081019050610523565b8381111561054d576000848401525b50505050565b7f4e487b7100000000000000000000000000000000000000000000000000000000600052601160045260246000fdfea26469706673582212208d93a52048fe4f0d3dfa853ab57138bb2a760c2b7a13fca79edc44ed66ceed9a64736f6c63430008000033a26469706673582212204204f2ac68703e5fa2b0086019fe6a3bcc1186ee2281a6849f3e4ed42825561e64736f6c63430008000033",
  "immutableReferences": {},
  "source": "pragma solidity ^0.8.0;\n\nimport \"./Ownable.sol\";\nimport \"./Item.sol\";\n\ncontract ItemManager is Ownable {\n    enum SupplyChainState{Created, Paid, Delivered} \n\n    struct S_Item {\n        Item _item;\n        string _identifier;\n        uint _itemPrice;\n        ItemManager.SupplyChainState _state;\n    }\n    mapping(uint => S_Item) public items;\n    uint itemIndex;\n\n    event SupplyChainStep(uint _itemIndex, uint _step, address _itemAddress);\n\n    function createItem(string memory _identifier, uint _itemPrice) public onlyOwner {\n        Item item = new Item(this, _itemPrice, itemIndex);\n        items[itemIndex]._item = item;\n        items[itemIndex]._identifier = _identifier;\n        items[itemIndex]._itemPrice = _itemPrice;\n        items[itemIndex]._state = SupplyChainState.Created;\n        emit SupplyChainStep(itemIndex, uint(items[itemIndex]._state), address(item));\n        itemIndex++;\n    }\n\n    function triggerPayment(uint _itemIndex) public payable {\n        require(items[_itemIndex]._itemPrice == msg.value, \"Only full payments accepted\");\n        require(items[_itemIndex]._state == SupplyChainState.Created, \"Item is further in supply chain\");\n        items[_itemIndex]._state = SupplyChainState.Paid;\n\n        emit SupplyChainStep(_itemIndex, uint(items[_itemIndex]._state), address(items[_itemIndex]._item));\n    }\n\n    function triggerDelivery(uint _itemIndex) public onlyOwner {\n        require(items[_itemIndex]._state == SupplyChainState.Paid, \"Item is further in the chain\");\n        items[_itemIndex]._state = SupplyChainState.Delivered;\n\n        emit SupplyChainStep(_itemIndex, uint (items[_itemIndex]._state), address(items[_itemIndex]._item));\n    }\n}",
  "sourcePath": "/Users/georgelugo/Desktop/web3/supplyChain-truffle/contracts/ItemManager.sol",
  "compiler": {
    "name": "solc",
    "version": "0.8.0+commit.c7dfd78e.Emscripten.clang"
  },
  "schemaVersion": "3.4.4",
  "updatedAt": "2022-02-01T17:10:32.428Z",
  "networkType": "ethereum",
  "devdoc": {
    "kind": "dev",
    "methods": {
      "isOwner()": {
        "details": "Returns true if the caller is the current owner. "
      }
    },
    "version": 1
  },
  "userdoc": {
    "kind": "user",
    "methods": {},
    "version": 1
  }
}